{
  "_format": "hh-sol-artifact-1",
  "contractName": "horoscopeNFT",
  "sourceName": "contracts/horoscopeNFT.sol",
  "abi": [
    {
      "inputs": [],
      "stateMutability": "nonpayable",
      "type": "constructor"
    },
    {
      "anonymous": false,
      "inputs": [
        {
          "indexed": true,
          "internalType": "address",
          "name": "owner",
          "type": "address"
        },
        {
          "indexed": true,
          "internalType": "address",
          "name": "approved",
          "type": "address"
        },
        {
          "indexed": true,
          "internalType": "uint256",
          "name": "tokenId",
          "type": "uint256"
        }
      ],
      "name": "Approval",
      "type": "event"
    },
    {
      "anonymous": false,
      "inputs": [
        {
          "indexed": true,
          "internalType": "address",
          "name": "owner",
          "type": "address"
        },
        {
          "indexed": true,
          "internalType": "address",
          "name": "operator",
          "type": "address"
        },
        {
          "indexed": false,
          "internalType": "bool",
          "name": "approved",
          "type": "bool"
        }
      ],
      "name": "ApprovalForAll",
      "type": "event"
    },
    {
      "anonymous": false,
      "inputs": [
        {
          "indexed": true,
          "internalType": "address",
          "name": "from",
          "type": "address"
        },
        {
          "indexed": true,
          "internalType": "address",
          "name": "to",
          "type": "address"
        },
        {
          "indexed": true,
          "internalType": "uint256",
          "name": "tokenId",
          "type": "uint256"
        }
      ],
      "name": "Transfer",
      "type": "event"
    },
    {
      "inputs": [
        {
          "internalType": "address",
          "name": "to",
          "type": "address"
        },
        {
          "internalType": "uint256",
          "name": "tokenId",
          "type": "uint256"
        }
      ],
      "name": "approve",
      "outputs": [],
      "stateMutability": "nonpayable",
      "type": "function"
    },
    {
      "inputs": [
        {
          "internalType": "address",
          "name": "owner",
          "type": "address"
        }
      ],
      "name": "balanceOf",
      "outputs": [
        {
          "internalType": "uint256",
          "name": "",
          "type": "uint256"
        }
      ],
      "stateMutability": "view",
      "type": "function"
    },
    {
      "inputs": [
        {
          "internalType": "uint256",
          "name": "tokenId",
          "type": "uint256"
        }
      ],
      "name": "getApproved",
      "outputs": [
        {
          "internalType": "address",
          "name": "",
          "type": "address"
        }
      ],
      "stateMutability": "view",
      "type": "function"
    },
    {
      "inputs": [
        {
          "internalType": "address",
          "name": "owner",
          "type": "address"
        },
        {
          "internalType": "address",
          "name": "operator",
          "type": "address"
        }
      ],
      "name": "isApprovedForAll",
      "outputs": [
        {
          "internalType": "bool",
          "name": "",
          "type": "bool"
        }
      ],
      "stateMutability": "view",
      "type": "function"
    },
    {
      "inputs": [
        {
          "internalType": "address",
          "name": "recipient",
          "type": "address"
        },
        {
          "internalType": "string",
          "name": "zodiacSign",
          "type": "string"
        },
        {
          "internalType": "string",
          "name": "color",
          "type": "string"
        }
      ],
      "name": "mintNFT",
      "outputs": [
        {
          "internalType": "uint256",
          "name": "",
          "type": "uint256"
        }
      ],
      "stateMutability": "nonpayable",
      "type": "function"
    },
    {
      "inputs": [],
      "name": "name",
      "outputs": [
        {
          "internalType": "string",
          "name": "",
          "type": "string"
        }
      ],
      "stateMutability": "view",
      "type": "function"
    },
    {
      "inputs": [
        {
          "internalType": "uint256",
          "name": "tokenId",
          "type": "uint256"
        }
      ],
      "name": "ownerOf",
      "outputs": [
        {
          "internalType": "address",
          "name": "",
          "type": "address"
        }
      ],
      "stateMutability": "view",
      "type": "function"
    },
    {
      "inputs": [
        {
          "internalType": "address",
          "name": "from",
          "type": "address"
        },
        {
          "internalType": "address",
          "name": "to",
          "type": "address"
        },
        {
          "internalType": "uint256",
          "name": "tokenId",
          "type": "uint256"
        }
      ],
      "name": "safeTransferFrom",
      "outputs": [],
      "stateMutability": "nonpayable",
      "type": "function"
    },
    {
      "inputs": [
        {
          "internalType": "address",
          "name": "from",
          "type": "address"
        },
        {
          "internalType": "address",
          "name": "to",
          "type": "address"
        },
        {
          "internalType": "uint256",
          "name": "tokenId",
          "type": "uint256"
        },
        {
          "internalType": "bytes",
          "name": "_data",
          "type": "bytes"
        }
      ],
      "name": "safeTransferFrom",
      "outputs": [],
      "stateMutability": "nonpayable",
      "type": "function"
    },
    {
      "inputs": [
        {
          "internalType": "address",
          "name": "operator",
          "type": "address"
        },
        {
          "internalType": "bool",
          "name": "approved",
          "type": "bool"
        }
      ],
      "name": "setApprovalForAll",
      "outputs": [],
      "stateMutability": "nonpayable",
      "type": "function"
    },
    {
      "inputs": [
        {
          "internalType": "bytes4",
          "name": "interfaceId",
          "type": "bytes4"
        }
      ],
      "name": "supportsInterface",
      "outputs": [
        {
          "internalType": "bool",
          "name": "",
          "type": "bool"
        }
      ],
      "stateMutability": "view",
      "type": "function"
    },
    {
      "inputs": [],
      "name": "symbol",
      "outputs": [
        {
          "internalType": "string",
          "name": "",
          "type": "string"
        }
      ],
      "stateMutability": "view",
      "type": "function"
    },
    {
      "inputs": [
        {
          "internalType": "uint256",
          "name": "tokenId",
          "type": "uint256"
        }
      ],
      "name": "tokenURI",
      "outputs": [
        {
          "internalType": "string",
          "name": "",
          "type": "string"
        }
      ],
      "stateMutability": "view",
      "type": "function"
    },
    {
      "inputs": [
        {
          "internalType": "address",
          "name": "from",
          "type": "address"
        },
        {
          "internalType": "address",
          "name": "to",
          "type": "address"
        },
        {
          "internalType": "uint256",
          "name": "tokenId",
          "type": "uint256"
        }
      ],
      "name": "transferFrom",
      "outputs": [],
      "stateMutability": "nonpayable",
      "type": "function"
    }
  ],
  "bytecode": "0x60806040523480156200001157600080fd5b506040518060400160405280600d81526020017f486f726f73636f7065204e4654000000000000000000000000000000000000008152506040518060400160405280600481526020017f484e465400000000000000000000000000000000000000000000000000000000815250816000908051906020019062000096929190620000b8565b508060019080519060200190620000af929190620000b8565b505050620001cd565b828054620000c69062000168565b90600052602060002090601f016020900481019282620000ea576000855562000136565b82601f106200010557805160ff191683800117855562000136565b8280016001018555821562000136579182015b828111156200013557825182559160200191906001019062000118565b5b50905062000145919062000149565b5090565b5b80821115620001645760008160009055506001016200014a565b5090565b600060028204905060018216806200018157607f821691505b602082108114156200019857620001976200019e565b5b50919050565b7f4e487b7100000000000000000000000000000000000000000000000000000000600052602260045260246000fd5b6133ac80620001dd6000396000f3fe608060405234801561001057600080fd5b50600436106100ea5760003560e01c806370a082311161008c578063a3ee38ae11610066578063a3ee38ae1461025b578063b88d4fde1461028b578063c87b56dd146102a7578063e985e9c5146102d7576100ea565b806370a08231146101f157806395d89b4114610221578063a22cb4651461023f576100ea565b8063095ea7b3116100c8578063095ea7b31461016d57806323b872dd1461018957806342842e0e146101a55780636352211e146101c1576100ea565b806301ffc9a7146100ef57806306fdde031461011f578063081812fc1461013d575b600080fd5b61010960048036038101906101049190611ebc565b610307565b60405161011691906124b5565b60405180910390f35b6101276103e9565b60405161013491906124d0565b60405180910390f35b61015760048036038101906101529190611f0e565b61047b565b604051610164919061244e565b60405180910390f35b61018760048036038101906101829190611e80565b610500565b005b6101a3600480360381019061019e9190611cfb565b610618565b005b6101bf60048036038101906101ba9190611cfb565b610678565b005b6101db60048036038101906101d69190611f0e565b610698565b6040516101e8919061244e565b60405180910390f35b61020b60048036038101906102069190611c96565b61074a565b60405161021891906126f2565b60405180910390f35b610229610802565b60405161023691906124d0565b60405180910390f35b61025960048036038101906102549190611dc5565b610894565b005b61027560048036038101906102709190611e01565b6108aa565b60405161028291906126f2565b60405180910390f35b6102a560048036038101906102a09190611d4a565b61098d565b005b6102c160048036038101906102bc9190611f0e565b6109ef565b6040516102ce91906124d0565b60405180910390f35b6102f160048036038101906102ec9190611cbf565b610b41565b6040516102fe91906124b5565b60405180910390f35b60007f80ac58cd000000000000000000000000000000000000000000000000000000007bffffffffffffffffffffffffffffffffffffffffffffffffffffffff1916827bffffffffffffffffffffffffffffffffffffffffffffffffffffffff191614806103d257507f5b5e139f000000000000000000000000000000000000000000000000000000007bffffffffffffffffffffffffffffffffffffffffffffffffffffffff1916827bffffffffffffffffffffffffffffffffffffffffffffffffffffffff1916145b806103e257506103e182610bd5565b5b9050919050565b6060600080546103f8906129a2565b80601f0160208091040260200160405190810160405280929190818152602001828054610424906129a2565b80156104715780601f1061044657610100808354040283529160200191610471565b820191906000526020600020905b81548152906001019060200180831161045457829003601f168201915b5050505050905090565b600061048682610c3f565b6104c5576040517f08c379a00000000000000000000000000000000000000000000000000000000081526004016104bc90612672565b60405180910390fd5b6004600083815260200190815260200160002060009054906101000a900473ffffffffffffffffffffffffffffffffffffffff169050919050565b600061050b82610698565b90508073ffffffffffffffffffffffffffffffffffffffff168373ffffffffffffffffffffffffffffffffffffffff16141561057c576040517f08c379a0000000000000000000000000000000000000000000000000000000008152600401610573906126b2565b60405180910390fd5b8073ffffffffffffffffffffffffffffffffffffffff1661059b610cab565b73ffffffffffffffffffffffffffffffffffffffff1614806105ca57506105c9816105c4610cab565b610b41565b5b610609576040517f08c379a0000000000000000000000000000000000000000000000000000000008152600401610600906125b2565b60405180910390fd5b6106138383610cb3565b505050565b610629610623610cab565b82610d6c565b610668576040517f08c379a000000000000000000000000000000000000000000000000000000000815260040161065f906126d2565b60405180910390fd5b610673838383610e4a565b505050565b6106938383836040518060200160405280600081525061098d565b505050565b6000806002600084815260200190815260200160002060009054906101000a900473ffffffffffffffffffffffffffffffffffffffff169050600073ffffffffffffffffffffffffffffffffffffffff168173ffffffffffffffffffffffffffffffffffffffff161415610741576040517f08c379a0000000000000000000000000000000000000000000000000000000008152600401610738906125f2565b60405180910390fd5b80915050919050565b60008073ffffffffffffffffffffffffffffffffffffffff168273ffffffffffffffffffffffffffffffffffffffff1614156107bb576040517f08c379a00000000000000000000000000000000000000000000000000000000081526004016107b2906125d2565b60405180910390fd5b600360008373ffffffffffffffffffffffffffffffffffffffff1673ffffffffffffffffffffffffffffffffffffffff168152602001908152602001600020549050919050565b606060018054610811906129a2565b80601f016020809104026020016040519081016040528092919081815260200182805461083d906129a2565b801561088a5780601f1061085f5761010080835404028352916020019161088a565b820191906000526020600020905b81548152906001019060200180831161086d57829003601f168201915b5050505050905090565b6108a661089f610cab565b83836110b1565b5050565b60006108b6600761121e565b6000826040516020016108c991906123a2565b6040516020818303038152906040529050600081856040516020016108ef929190612373565b60405160208183030381529060405290506000610936868761091085611234565b604051602001610922939291906123cf565b604051602081830303815290604052611234565b905060008160405160200161094b919061242c565b6040516020818303038152906040529050600061096860076113d3565b905061097489826113e1565b61097e81836115bb565b80955050505050509392505050565b61099e610998610cab565b83610d6c565b6109dd576040517f08c379a00000000000000000000000000000000000000000000000000000000081526004016109d4906126d2565b60405180910390fd5b6109e98484848461162f565b50505050565b60606109fa82610c3f565b610a39576040517f08c379a0000000000000000000000000000000000000000000000000000000008152600401610a3090612652565b60405180910390fd5b6000600660008481526020019081526020016000208054610a59906129a2565b80601f0160208091040260200160405190810160405280929190818152602001828054610a85906129a2565b8015610ad25780601f10610aa757610100808354040283529160200191610ad2565b820191906000526020600020905b815481529060010190602001808311610ab557829003601f168201915b505050505090506000610ae361168b565b9050600081511415610af9578192505050610b3c565b600082511115610b2e578082604051602001610b1692919061234f565b60405160208183030381529060405292505050610b3c565b610b37846116a2565b925050505b919050565b6000600560008473ffffffffffffffffffffffffffffffffffffffff1673ffffffffffffffffffffffffffffffffffffffff16815260200190815260200160002060008373ffffffffffffffffffffffffffffffffffffffff1673ffffffffffffffffffffffffffffffffffffffff16815260200190815260200160002060009054906101000a900460ff16905092915050565b60007f01ffc9a7000000000000000000000000000000000000000000000000000000007bffffffffffffffffffffffffffffffffffffffffffffffffffffffff1916827bffffffffffffffffffffffffffffffffffffffffffffffffffffffff1916149050919050565b60008073ffffffffffffffffffffffffffffffffffffffff166002600084815260200190815260200160002060009054906101000a900473ffffffffffffffffffffffffffffffffffffffff1673ffffffffffffffffffffffffffffffffffffffff1614159050919050565b600033905090565b816004600083815260200190815260200160002060006101000a81548173ffffffffffffffffffffffffffffffffffffffff021916908373ffffffffffffffffffffffffffffffffffffffff160217905550808273ffffffffffffffffffffffffffffffffffffffff16610d2683610698565b73ffffffffffffffffffffffffffffffffffffffff167f8c5be1e5ebec7d5bd14f71427d1e84f3dd0314c0f7b2291e5b200ac8c7c3b92560405160405180910390a45050565b6000610d7782610c3f565b610db6576040517f08c379a0000000000000000000000000000000000000000000000000000000008152600401610dad90612592565b60405180910390fd5b6000610dc183610698565b90508073ffffffffffffffffffffffffffffffffffffffff168473ffffffffffffffffffffffffffffffffffffffff161480610e3057508373ffffffffffffffffffffffffffffffffffffffff16610e188461047b565b73ffffffffffffffffffffffffffffffffffffffff16145b80610e415750610e408185610b41565b5b91505092915050565b8273ffffffffffffffffffffffffffffffffffffffff16610e6a82610698565b73ffffffffffffffffffffffffffffffffffffffff1614610ec0576040517f08c379a0000000000000000000000000000000000000000000000000000000008152600401610eb790612512565b60405180910390fd5b600073ffffffffffffffffffffffffffffffffffffffff168273ffffffffffffffffffffffffffffffffffffffff161415610f30576040517f08c379a0000000000000000000000000000000000000000000000000000000008152600401610f2790612552565b60405180910390fd5b610f3b838383611749565b610f46600082610cb3565b6001600360008573ffffffffffffffffffffffffffffffffffffffff1673ffffffffffffffffffffffffffffffffffffffff1681526020019081526020016000206000828254610f9691906128b8565b925050819055506001600360008473ffffffffffffffffffffffffffffffffffffffff1673ffffffffffffffffffffffffffffffffffffffff1681526020019081526020016000206000828254610fed91906127d7565b92505081905550816002600083815260200190815260200160002060006101000a81548173ffffffffffffffffffffffffffffffffffffffff021916908373ffffffffffffffffffffffffffffffffffffffff160217905550808273ffffffffffffffffffffffffffffffffffffffff168473ffffffffffffffffffffffffffffffffffffffff167fddf252ad1be2c89b69c2b068fc378daa952ba7f163c4a11628f55a4df523b3ef60405160405180910390a46110ac83838361174e565b505050565b8173ffffffffffffffffffffffffffffffffffffffff168373ffffffffffffffffffffffffffffffffffffffff161415611120576040517f08c379a000000000000000000000000000000000000000000000000000000000815260040161111790612572565b60405180910390fd5b80600560008573ffffffffffffffffffffffffffffffffffffffff1673ffffffffffffffffffffffffffffffffffffffff16815260200190815260200160002060008473ffffffffffffffffffffffffffffffffffffffff1673ffffffffffffffffffffffffffffffffffffffff16815260200190815260200160002060006101000a81548160ff0219169083151502179055508173ffffffffffffffffffffffffffffffffffffffff168373ffffffffffffffffffffffffffffffffffffffff167f17307eab39ab6107e8899845ad3d59bd9653f200f220920489ca2b5937696c318360405161121191906124b5565b60405180910390a3505050565b6001816000016000828254019250508190555050565b6060600082511415611257576040518060200160405280600081525090506113ce565b6000604051806060016040528060408152602001613337604091399050600060036002855161128691906127d7565b611290919061282d565b600461129c919061285e565b905060006020826112ad91906127d7565b67ffffffffffffffff8111156112ec577f4e487b7100000000000000000000000000000000000000000000000000000000600052604160045260246000fd5b6040519080825280601f01601f19166020018201604052801561131e5781602001600182028036833780820191505090505b509050818152600183018586518101602084015b8183101561138d576003830192508251603f8160121c168501518253600182019150603f81600c1c168501518253600182019150603f8160061c168501518253600182019150603f8116850151825360018201915050611332565b6003895106600181146113a757600281146113b7576113c2565b613d3d60f01b60028303526113c2565b603d60f81b60018303525b50505050508093505050505b919050565b600081600001549050919050565b600073ffffffffffffffffffffffffffffffffffffffff168273ffffffffffffffffffffffffffffffffffffffff161415611451576040517f08c379a000000000000000000000000000000000000000000000000000000000815260040161144890612632565b60405180910390fd5b61145a81610c3f565b1561149a576040517f08c379a000000000000000000000000000000000000000000000000000000000815260040161149190612532565b60405180910390fd5b6114a660008383611749565b6001600360008473ffffffffffffffffffffffffffffffffffffffff1673ffffffffffffffffffffffffffffffffffffffff16815260200190815260200160002060008282546114f691906127d7565b92505081905550816002600083815260200190815260200160002060006101000a81548173ffffffffffffffffffffffffffffffffffffffff021916908373ffffffffffffffffffffffffffffffffffffffff160217905550808273ffffffffffffffffffffffffffffffffffffffff16600073ffffffffffffffffffffffffffffffffffffffff167fddf252ad1be2c89b69c2b068fc378daa952ba7f163c4a11628f55a4df523b3ef60405160405180910390a46115b76000838361174e565b5050565b6115c482610c3f565b611603576040517f08c379a00000000000000000000000000000000000000000000000000000000081526004016115fa90612612565b60405180910390fd5b8060066000848152602001908152602001600020908051906020019061162a929190611aba565b505050565b61163a848484610e4a565b61164684848484611753565b611685576040517f08c379a000000000000000000000000000000000000000000000000000000000815260040161167c906124f2565b60405180910390fd5b50505050565b606060405180602001604052806000815250905090565b60606116ad82610c3f565b6116ec576040517f08c379a00000000000000000000000000000000000000000000000000000000081526004016116e390612692565b60405180910390fd5b60006116f661168b565b905060008151116117165760405180602001604052806000815250611741565b80611720846118ea565b60405160200161173192919061234f565b6040516020818303038152906040525b915050919050565b505050565b505050565b60006117748473ffffffffffffffffffffffffffffffffffffffff16611a97565b156118dd578373ffffffffffffffffffffffffffffffffffffffff1663150b7a0261179d610cab565b8786866040518563ffffffff1660e01b81526004016117bf9493929190612469565b602060405180830381600087803b1580156117d957600080fd5b505af192505050801561180a57506040513d601f19601f820116820180604052508101906118079190611ee5565b60015b61188d573d806000811461183a576040519150601f19603f3d011682016040523d82523d6000602084013e61183f565b606091505b50600081511415611885576040517f08c379a000000000000000000000000000000000000000000000000000000000815260040161187c906124f2565b60405180910390fd5b805181602001fd5b63150b7a0260e01b7bffffffffffffffffffffffffffffffffffffffffffffffffffffffff1916817bffffffffffffffffffffffffffffffffffffffffffffffffffffffff1916149150506118e2565b600190505b949350505050565b60606000821415611932576040518060400160405280600181526020017f30000000000000000000000000000000000000000000000000000000000000008152509050611a92565b600082905060005b6000821461196457808061194d90612a05565b915050600a8261195d919061282d565b915061193a565b60008167ffffffffffffffff8111156119a6577f4e487b7100000000000000000000000000000000000000000000000000000000600052604160045260246000fd5b6040519080825280601f01601f1916602001820160405280156119d85781602001600182028036833780820191505090505b5090505b60008514611a8b576001826119f191906128b8565b9150600a85611a009190612a4e565b6030611a0c91906127d7565b60f81b818381518110611a48577f4e487b7100000000000000000000000000000000000000000000000000000000600052603260045260246000fd5b60200101907effffffffffffffffffffffffffffffffffffffffffffffffffffffffffffff1916908160001a905350600a85611a84919061282d565b94506119dc565b8093505050505b919050565b6000808273ffffffffffffffffffffffffffffffffffffffff163b119050919050565b828054611ac6906129a2565b90600052602060002090601f016020900481019282611ae85760008555611b2f565b82601f10611b0157805160ff1916838001178555611b2f565b82800160010185558215611b2f579182015b82811115611b2e578251825591602001919060010190611b13565b5b509050611b3c9190611b40565b5090565b5b80821115611b59576000816000905550600101611b41565b5090565b6000611b70611b6b84612732565b61270d565b905082815260208101848484011115611b8857600080fd5b611b93848285612960565b509392505050565b6000611bae611ba984612763565b61270d565b905082815260208101848484011115611bc657600080fd5b611bd1848285612960565b509392505050565b600081359050611be8816132da565b92915050565b600081359050611bfd816132f1565b92915050565b600081359050611c1281613308565b92915050565b600081519050611c2781613308565b92915050565b600082601f830112611c3e57600080fd5b8135611c4e848260208601611b5d565b91505092915050565b600082601f830112611c6857600080fd5b8135611c78848260208601611b9b565b91505092915050565b600081359050611c908161331f565b92915050565b600060208284031215611ca857600080fd5b6000611cb684828501611bd9565b91505092915050565b60008060408385031215611cd257600080fd5b6000611ce085828601611bd9565b9250506020611cf185828601611bd9565b9150509250929050565b600080600060608486031215611d1057600080fd5b6000611d1e86828701611bd9565b9350506020611d2f86828701611bd9565b9250506040611d4086828701611c81565b9150509250925092565b60008060008060808587031215611d6057600080fd5b6000611d6e87828801611bd9565b9450506020611d7f87828801611bd9565b9350506040611d9087828801611c81565b925050606085013567ffffffffffffffff811115611dad57600080fd5b611db987828801611c2d565b91505092959194509250565b60008060408385031215611dd857600080fd5b6000611de685828601611bd9565b9250506020611df785828601611bee565b9150509250929050565b600080600060608486031215611e1657600080fd5b6000611e2486828701611bd9565b935050602084013567ffffffffffffffff811115611e4157600080fd5b611e4d86828701611c57565b925050604084013567ffffffffffffffff811115611e6a57600080fd5b611e7686828701611c57565b9150509250925092565b60008060408385031215611e9357600080fd5b6000611ea185828601611bd9565b9250506020611eb285828601611c81565b9150509250929050565b600060208284031215611ece57600080fd5b6000611edc84828501611c03565b91505092915050565b600060208284031215611ef757600080fd5b6000611f0584828501611c18565b91505092915050565b600060208284031215611f2057600080fd5b6000611f2e84828501611c81565b91505092915050565b611f40816128ec565b82525050565b611f4f816128fe565b82525050565b6000611f6082612794565b611f6a81856127aa565b9350611f7a81856020860161296f565b611f8381612b3b565b840191505092915050565b6000611f998261279f565b611fa381856127bb565b9350611fb381856020860161296f565b611fbc81612b3b565b840191505092915050565b6000611fd28261279f565b611fdc81856127cc565b9350611fec81856020860161296f565b80840191505092915050565b60006120056032836127bb565b915061201082612b4c565b604082019050919050565b60006120286025836127bb565b915061203382612b9b565b604082019050919050565b600061204b601c836127bb565b915061205682612bea565b602082019050919050565b600061206e6024836127bb565b915061207982612c13565b604082019050919050565b60006120916019836127bb565b915061209c82612c62565b602082019050919050565b60006120b460d3836127cc565b91506120bf82612c8b565b60d382019050919050565b60006120d7602c836127bb565b91506120e282612d98565b604082019050919050565b60006120fa600d836127cc565b915061210582612de7565b600d82019050919050565b600061211d6029836127cc565b915061212882612e10565b602982019050919050565b60006121406038836127bb565b915061214b82612e5f565b604082019050919050565b6000612163602a836127bb565b915061216e82612eae565b604082019050919050565b60006121866029836127bb565b915061219182612efd565b604082019050919050565b60006121a9602e836127bb565b91506121b482612f4c565b604082019050919050565b60006121cc6002836127cc565b91506121d782612f9b565b600282019050919050565b60006121ef6020836127bb565b91506121fa82612fc4565b602082019050919050565b60006122126031836127bb565b915061221d82612fed565b604082019050919050565b6000612235602c836127bb565b91506122408261303c565b604082019050919050565b6000612258602f836127bb565b91506122638261308b565b604082019050919050565b600061227b600a836127cc565b9150612286826130da565b600a82019050919050565b600061229e6057836127cc565b91506122a982613103565b605782019050919050565b60006122c16066836127cc565b91506122cc82613178565b606682019050919050565b60006122e46021836127bb565b91506122ef82613213565b604082019050919050565b6000612307601d836127cc565b915061231282613262565b601d82019050919050565b600061232a6031836127bb565b91506123358261328b565b604082019050919050565b61234981612956565b82525050565b600061235b8285611fc7565b91506123678284611fc7565b91508190509392505050565b600061237f8285611fc7565b915061238b8284611fc7565b9150612396826120ed565b91508190509392505050565b60006123ad826120a7565b91506123b98284611fc7565b91506123c482612291565b915081905092915050565b60006123da8261226e565b91506123e68286611fc7565b91506123f1826122b4565b91506123fd8285611fc7565b915061240882612110565b91506124148284611fc7565b915061241f826121bf565b9150819050949350505050565b6000612437826122fa565b91506124438284611fc7565b915081905092915050565b60006020820190506124636000830184611f37565b92915050565b600060808201905061247e6000830187611f37565b61248b6020830186611f37565b6124986040830185612340565b81810360608301526124aa8184611f55565b905095945050505050565b60006020820190506124ca6000830184611f46565b92915050565b600060208201905081810360008301526124ea8184611f8e565b905092915050565b6000602082019050818103600083015261250b81611ff8565b9050919050565b6000602082019050818103600083015261252b8161201b565b9050919050565b6000602082019050818103600083015261254b8161203e565b9050919050565b6000602082019050818103600083015261256b81612061565b9050919050565b6000602082019050818103600083015261258b81612084565b9050919050565b600060208201905081810360008301526125ab816120ca565b9050919050565b600060208201905081810360008301526125cb81612133565b9050919050565b600060208201905081810360008301526125eb81612156565b9050919050565b6000602082019050818103600083015261260b81612179565b9050919050565b6000602082019050818103600083015261262b8161219c565b9050919050565b6000602082019050818103600083015261264b816121e2565b9050919050565b6000602082019050818103600083015261266b81612205565b9050919050565b6000602082019050818103600083015261268b81612228565b9050919050565b600060208201905081810360008301526126ab8161224b565b9050919050565b600060208201905081810360008301526126cb816122d7565b9050919050565b600060208201905081810360008301526126eb8161231d565b9050919050565b60006020820190506127076000830184612340565b92915050565b6000612717612728565b905061272382826129d4565b919050565b6000604051905090565b600067ffffffffffffffff82111561274d5761274c612b0c565b5b61275682612b3b565b9050602081019050919050565b600067ffffffffffffffff82111561277e5761277d612b0c565b5b61278782612b3b565b9050602081019050919050565b600081519050919050565b600081519050919050565b600082825260208201905092915050565b600082825260208201905092915050565b600081905092915050565b60006127e282612956565b91506127ed83612956565b9250827fffffffffffffffffffffffffffffffffffffffffffffffffffffffffffffffff0382111561282257612821612a7f565b5b828201905092915050565b600061283882612956565b915061284383612956565b92508261285357612852612aae565b5b828204905092915050565b600061286982612956565b915061287483612956565b9250817fffffffffffffffffffffffffffffffffffffffffffffffffffffffffffffffff04831182151516156128ad576128ac612a7f565b5b828202905092915050565b60006128c382612956565b91506128ce83612956565b9250828210156128e1576128e0612a7f565b5b828203905092915050565b60006128f782612936565b9050919050565b60008115159050919050565b60007fffffffff0000000000000000000000000000000000000000000000000000000082169050919050565b600073ffffffffffffffffffffffffffffffffffffffff82169050919050565b6000819050919050565b82818337600083830152505050565b60005b8381101561298d578082015181840152602081019050612972565b8381111561299c576000848401525b50505050565b600060028204905060018216806129ba57607f821691505b602082108114156129ce576129cd612add565b5b50919050565b6129dd82612b3b565b810181811067ffffffffffffffff821117156129fc576129fb612b0c565b5b80604052505050565b6000612a1082612956565b91507fffffffffffffffffffffffffffffffffffffffffffffffffffffffffffffffff821415612a4357612a42612a7f565b5b600182019050919050565b6000612a5982612956565b9150612a6483612956565b925082612a7457612a73612aae565b5b828206905092915050565b7f4e487b7100000000000000000000000000000000000000000000000000000000600052601160045260246000fd5b7f4e487b7100000000000000000000000000000000000000000000000000000000600052601260045260246000fd5b7f4e487b7100000000000000000000000000000000000000000000000000000000600052602260045260246000fd5b7f4e487b7100000000000000000000000000000000000000000000000000000000600052604160045260246000fd5b6000601f19601f8301169050919050565b7f4552433732313a207472616e7366657220746f206e6f6e20455243373231526560008201527f63656976657220696d706c656d656e7465720000000000000000000000000000602082015250565b7f4552433732313a207472616e736665722066726f6d20696e636f72726563742060008201527f6f776e6572000000000000000000000000000000000000000000000000000000602082015250565b7f4552433732313a20746f6b656e20616c7265616479206d696e74656400000000600082015250565b7f4552433732313a207472616e7366657220746f20746865207a65726f2061646460008201527f7265737300000000000000000000000000000000000000000000000000000000602082015250565b7f4552433732313a20617070726f766520746f2063616c6c657200000000000000600082015250565b7f3c73766720786d6c6e733d27687474703a2f2f7777772e77332e6f72672f323060008201527f30302f73766727207072657365727665417370656374526174696f3d27784d6960208201527f6e594d696e206d656574272076696577426f783d27302030203335302033353060408201527f273e3c7374796c653e2e62617365207b2066696c6c3a2077686974653b20666f60608201527f6e742d66616d696c793a20417269616c3b20666f6e742d73697a653a2032347060808201527f783b207d3c2f7374796c653e3c726563742077696474683d273130302527206860a08201527f65696768743d2731303025272066696c6c3d270000000000000000000000000060c082015250565b7f4552433732313a206f70657261746f7220717565727920666f72206e6f6e657860008201527f697374656e7420746f6b656e0000000000000000000000000000000000000000602082015250565b7f3c2f746578743e3c2f7376673e00000000000000000000000000000000000000600082015250565b7f227d5d2c2022696d616765223a2022646174613a696d6167652f7376672b786d60008201527f6c3b6261736536342c0000000000000000000000000000000000000000000000602082015250565b7f4552433732313a20617070726f76652063616c6c6572206973206e6f74206f7760008201527f6e6572206e6f7220617070726f76656420666f7220616c6c0000000000000000602082015250565b7f4552433732313a2062616c616e636520717565727920666f7220746865207a6560008201527f726f206164647265737300000000000000000000000000000000000000000000602082015250565b7f4552433732313a206f776e657220717565727920666f72206e6f6e657869737460008201527f656e7420746f6b656e0000000000000000000000000000000000000000000000602082015250565b7f45524337323155524953746f726167653a2055524920736574206f66206e6f6e60008201527f6578697374656e7420746f6b656e000000000000000000000000000000000000602082015250565b7f227d000000000000000000000000000000000000000000000000000000000000600082015250565b7f4552433732313a206d696e7420746f20746865207a65726f2061646472657373600082015250565b7f45524337323155524953746f726167653a2055524920717565727920666f722060008201527f6e6f6e6578697374656e7420746f6b656e000000000000000000000000000000602082015250565b7f4552433732313a20617070726f76656420717565727920666f72206e6f6e657860008201527f697374656e7420746f6b656e0000000000000000000000000000000000000000602082015250565b7f4552433732314d657461646174613a2055524920717565727920666f72206e6f60008201527f6e6578697374656e7420746f6b656e0000000000000000000000000000000000602082015250565b7f7b226e616d65223a202200000000000000000000000000000000000000000000600082015250565b7f27202f3e3c7465787420783d273530252720793d273530252720636c6173733d60008201527f27626173652720646f6d696e616e742d626173656c696e653d276d6964646c6560208201527f2720746578742d616e63686f723d276d6964646c65273e000000000000000000604082015250565b7f222c20226465736372697074696f6e223a20224f6e2d636861696e205a6f646960008201527f6163205369676e204e465473222c202261747472696275746573223a205b7b2260208201527f74726169745f74797065223a20225a6f64696163205369676e222c202276616c60408201527f7565223a20220000000000000000000000000000000000000000000000000000606082015250565b7f4552433732313a20617070726f76616c20746f2063757272656e74206f776e6560008201527f7200000000000000000000000000000000000000000000000000000000000000602082015250565b7f646174613a6170706c69636174696f6e2f6a736f6e3b6261736536342c000000600082015250565b7f4552433732313a207472616e736665722063616c6c6572206973206e6f74206f60008201527f776e6572206e6f7220617070726f766564000000000000000000000000000000602082015250565b6132e3816128ec565b81146132ee57600080fd5b50565b6132fa816128fe565b811461330557600080fd5b50565b6133118161290a565b811461331c57600080fd5b50565b61332881612956565b811461333357600080fd5b5056fe4142434445464748494a4b4c4d4e4f505152535455565758595a6162636465666768696a6b6c6d6e6f707172737475767778797a303132333435363738392b2fa264697066735822122021c72489294bd04409b4aec27604b0da9b2f6bcecd56604813f4cbe9dbb2c40a64736f6c63430008010033",
  "linkReferences": {},
  "deployedLinkReferences": {}
}